{
  "_format": "hh-sol-artifact-1",
  "contractName": "IdentityManagement",
  "sourceName": "contracts/IdentityManagement.sol",
  "abi": [
    {
      "anonymous": false,
      "inputs": [
        {
          "indexed": true,
          "internalType": "address",
          "name": "userAddress",
          "type": "address"
        },
        {
          "indexed": false,
          "internalType": "bytes32",
          "name": "identityHash",
          "type": "bytes32"
        }
      ],
      "name": "IdentityCreated",
      "type": "event"
    },
    {
      "inputs": [
        {
          "internalType": "bytes32",
          "name": "identityHash",
          "type": "bytes32"
        }
      ],
      "name": "createIdentity",
      "outputs": [],
      "stateMutability": "nonpayable",
      "type": "function"
    },
    {
      "inputs": [],
      "name": "getIdentity",
      "outputs": [
        {
          "internalType": "bytes32",
          "name": "",
          "type": "bytes32"
        }
      ],
      "stateMutability": "view",
      "type": "function"
    },
    {
      "inputs": [
        {
          "internalType": "address",
          "name": "",
          "type": "address"
        }
      ],
      "name": "userIdentities",
      "outputs": [
        {
          "internalType": "bytes32",
          "name": "",
          "type": "bytes32"
        }
      ],
      "stateMutability": "view",
      "type": "function"
    }
  ],
  "bytecode": "0x608060405234801561001057600080fd5b506104e4806100206000396000f3fe608060405234801561001057600080fd5b50600436106100415760003560e01c80631b19454914610046578063216b00891461007657806336afc6fa14610092575b600080fd5b610060600480360381019061005b919061030b565b6100b0565b60405161006d9190610351565b60405180910390f35b610090600480360381019061008b9190610398565b6100c8565b005b61009a6101df565b6040516100a79190610351565b60405180910390f35b60006020528060005260406000206000915090505481565b6000801b6000803373ffffffffffffffffffffffffffffffffffffffff1673ffffffffffffffffffffffffffffffffffffffff168152602001908152602001600020541461014b576040517f08c379a000000000000000000000000000000000000000000000000000000000815260040161014290610422565b60405180910390fd5b806000803373ffffffffffffffffffffffffffffffffffffffff1673ffffffffffffffffffffffffffffffffffffffff168152602001908152602001600020819055503373ffffffffffffffffffffffffffffffffffffffff167fc57bc26436cd8a34f73d087e078b8b500467ab264f8aab6e1afaafa5978483fd826040516101d49190610351565b60405180910390a250565b60008060001b6000803373ffffffffffffffffffffffffffffffffffffffff1673ffffffffffffffffffffffffffffffffffffffff1681526020019081526020016000205403610264576040517f08c379a000000000000000000000000000000000000000000000000000000000815260040161025b9061048e565b60405180910390fd5b6000803373ffffffffffffffffffffffffffffffffffffffff1673ffffffffffffffffffffffffffffffffffffffff16815260200190815260200160002054905090565b600080fd5b600073ffffffffffffffffffffffffffffffffffffffff82169050919050565b60006102d8826102ad565b9050919050565b6102e8816102cd565b81146102f357600080fd5b50565b600081359050610305816102df565b92915050565b600060208284031215610321576103206102a8565b5b600061032f848285016102f6565b91505092915050565b6000819050919050565b61034b81610338565b82525050565b60006020820190506103666000830184610342565b92915050565b61037581610338565b811461038057600080fd5b50565b6000813590506103928161036c565b92915050565b6000602082840312156103ae576103ad6102a8565b5b60006103bc84828501610383565b91505092915050565b600082825260208201905092915050565b7f4964656e7469747920616c7265616479206578697374732e0000000000000000600082015250565b600061040c6018836103c5565b9150610417826103d6565b602082019050919050565b6000602082019050818103600083015261043b816103ff565b9050919050565b7f4964656e7469747920646f6573206e6f742065786973742e0000000000000000600082015250565b60006104786018836103c5565b915061048382610442565b602082019050919050565b600060208201905081810360008301526104a78161046b565b905091905056fea26469706673582212202b66d8d0b629a95d4ab4dbf475ddc27e29d0dce7208acac0e65e005d1aa2378a64736f6c63430008180033",
  "linkReferences": {},
  "deployedLinkReferences": {}
}